{
  "_format": "hh-sol-artifact-1",
  "contractName": "Router",
  "sourceName": "contracts/Router.sol",
  "abi": [
    {
      "inputs": [
        {
          "internalType": "address",
          "name": "_systemAccount",
          "type": "address"
        }
      ],
      "stateMutability": "nonpayable",
      "type": "constructor"
    },
    {
      "anonymous": false,
      "inputs": [
        {
          "indexed": true,
          "internalType": "address",
          "name": "roomAddress",
          "type": "address"
        },
        {
          "indexed": false,
          "internalType": "uint256",
          "name": "roomId",
          "type": "uint256"
        },
        {
          "indexed": false,
          "internalType": "address",
          "name": "landlord",
          "type": "address"
        }
      ],
      "name": "RoomDeployed",
      "type": "event"
    },
    {
      "inputs": [
        {
          "internalType": "uint256",
          "name": "roomId",
          "type": "uint256"
        },
        {
          "internalType": "uint256",
          "name": "price",
          "type": "uint256"
        },
        {
          "internalType": "address",
          "name": "landlord",
          "type": "address"
        }
      ],
      "name": "createRoom",
      "outputs": [
        {
          "internalType": "address",
          "name": "",
          "type": "address"
        }
      ],
      "stateMutability": "nonpayable",
      "type": "function"
    },
    {
      "inputs": [
        {
          "internalType": "address",
          "name": "roomAddress",
          "type": "address"
        },
        {
          "internalType": "uint256",
          "name": "roomId",
          "type": "uint256"
        },
        {
          "internalType": "uint256",
          "name": "price",
          "type": "uint256"
        },
        {
          "internalType": "uint256",
          "name": "startDate",
          "type": "uint256"
        },
        {
          "internalType": "uint256",
          "name": "endDate",
          "type": "uint256"
        }
      ],
      "name": "rentRoom",
      "outputs": [
        {
          "internalType": "uint256",
          "name": "rentResult",
          "type": "uint256"
        }
      ],
      "stateMutability": "payable",
      "type": "function"
    },
    {
      "inputs": [],
      "name": "systemAccount",
      "outputs": [
        {
          "internalType": "address",
          "name": "",
          "type": "address"
        }
      ],
      "stateMutability": "view",
      "type": "function"
    }
  ],
  "bytecode": "0x608060405234801561001057600080fd5b50604051614901380380614901833981810160405281019061003291906100db565b806000806101000a81548173ffffffffffffffffffffffffffffffffffffffff021916908373ffffffffffffffffffffffffffffffffffffffff16021790555050610108565b600080fd5b600073ffffffffffffffffffffffffffffffffffffffff82169050919050565b60006100a88261007d565b9050919050565b6100b88161009d565b81146100c357600080fd5b50565b6000815190506100d5816100af565b92915050565b6000602082840312156100f1576100f0610078565b5b60006100ff848285016100c6565b91505092915050565b6147ea806101176000396000f3fe608060405260043610620000385760003560e01c80632db54eb8146200003d578063b656ea1e1462000081578063e2af398014620000b7575b600080fd5b3480156200004a57600080fd5b5062000069600480360381019062000063919062000319565b620000e7565b60405162000078919062000386565b60405180910390f35b6200009f6004803603810190620000999190620003a3565b620001a8565b604051620000ae91906200043c565b60405180910390f35b348015620000c457600080fd5b50620000cf62000242565b604051620000de919062000386565b60405180910390f35b60008084848460008054906101000a900473ffffffffffffffffffffffffffffffffffffffff166040516200011c9062000266565b6200012b949392919062000459565b604051809103906000f08015801562000148573d6000803e3d6000fd5b5090508073ffffffffffffffffffffffffffffffffffffffff167fce6e4ddbb95ee7974d7e97355962f1939bac06f5749d4acaf94d1eb6aae2d982868560405162000195929190620004a6565b60405180910390a2809150509392505050565b6000808690508073ffffffffffffffffffffffffffffffffffffffff1663a165c0ba34888888886040518663ffffffff1660e01b8152600401620001f09493929190620004d3565b60206040518083038185885af11580156200020f573d6000803e3d6000fd5b50505050506040513d601f19601f8201168201806040525081019062000236919062000537565b91505095945050505050565b60008054906101000a900473ffffffffffffffffffffffffffffffffffffffff1681565b61424b806200056a83390190565b600080fd5b6000819050919050565b6200028e8162000279565b81146200029a57600080fd5b50565b600081359050620002ae8162000283565b92915050565b600073ffffffffffffffffffffffffffffffffffffffff82169050919050565b6000620002e182620002b4565b9050919050565b620002f381620002d4565b8114620002ff57600080fd5b50565b6000813590506200031381620002e8565b92915050565b60008060006060848603121562000335576200033462000274565b5b600062000345868287016200029d565b935050602062000358868287016200029d565b92505060406200036b8682870162000302565b9150509250925092565b6200038081620002d4565b82525050565b60006020820190506200039d600083018462000375565b92915050565b600080600080600060a08688031215620003c257620003c162000274565b5b6000620003d28882890162000302565b9550506020620003e5888289016200029d565b9450506040620003f8888289016200029d565b93505060606200040b888289016200029d565b92505060806200041e888289016200029d565b9150509295509295909350565b620004368162000279565b82525050565b60006020820190506200045360008301846200042b565b92915050565b60006080820190506200047060008301876200042b565b6200047f60208301866200042b565b6200048e604083018562000375565b6200049d606083018462000375565b95945050505050565b6000604082019050620004bd60008301856200042b565b620004cc602083018462000375565b9392505050565b6000608082019050620004ea60008301876200042b565b620004f960208301866200042b565b6200050860408301856200042b565b6200051760608301846200042b565b95945050505050565b600081519050620005318162000283565b92915050565b60006020828403121562000550576200054f62000274565b5b6000620005608482850162000520565b9150509291505056fe60806040523480156200001157600080fd5b506040516200424b3803806200424b83398181016040528101906200003791906200020b565b836000819055508260018190555081600260006101000a81548173ffffffffffffffffffffffffffffffffffffffff021916908373ffffffffffffffffffffffffffffffffffffffff1602179055506000600360146101000a81548160ff02191690831515021790555080600460006101000a81548173ffffffffffffffffffffffffffffffffffffffff021916908373ffffffffffffffffffffffffffffffffffffffff160217905550604051620000f09062000158565b604051809103906000f0801580156200010d573d6000803e3d6000fd5b50600560006101000a81548173ffffffffffffffffffffffffffffffffffffffff021916908373ffffffffffffffffffffffffffffffffffffffff160217905550505050506200027d565b612bf8806200165383390190565b600080fd5b6000819050919050565b62000180816200016b565b81146200018c57600080fd5b50565b600081519050620001a08162000175565b92915050565b600073ffffffffffffffffffffffffffffffffffffffff82169050919050565b6000620001d382620001a6565b9050919050565b620001e581620001c6565b8114620001f157600080fd5b50565b6000815190506200020581620001da565b92915050565b6000806000806080858703121562000228576200022762000166565b5b600062000238878288016200018f565b94505060206200024b878288016200018f565b93505060406200025e87828801620001f4565b92505060606200027187828801620001f4565b91505092959194509250565b6113c6806200028d6000396000f3fe6080604052600436106100555760003560e01c80633e6ca6aa1461005a5780635d1ca6311461008557806398d5fdca146100b0578063a165c0ba146100db578063a63049521461010b578063f502236d14610136575b600080fd5b34801561006657600080fd5b5061006f610161565b60405161007c919061095a565b60405180910390f35b34801561009157600080fd5b5061009a61018b565b6040516100a7919061098e565b60405180910390f35b3480156100bc57600080fd5b506100c5610194565b6040516100d2919061098e565b60405180910390f35b6100f560048036038101906100f091906109da565b61019e565b604051610102919061098e565b60405180910390f35b34801561011757600080fd5b50610120610547565b60405161012d9190610a5c565b60405180910390f35b34801561014257600080fd5b5061014b61055e565b604051610158919061095a565b60405180910390f35b6000600360009054906101000a900473ffffffffffffffffffffffffffffffffffffffff16905090565b60008054905090565b6000600154905090565b6000600360149054906101000a900460ff16156101f0576040517f08c379a00000000000000000000000000000000000000000000000000000000081526004016101e790610ad4565b60405180910390fd5b60646069856101ff9190610b23565b6102099190610b94565b341461024a576040517f08c379a000000000000000000000000000000000000000000000000000000000815260040161024190610c11565b60405180910390fd5b343373ffffffffffffffffffffffffffffffffffffffff163110156102a4576040517f08c379a000000000000000000000000000000000000000000000000000000000815260040161029b90610c7d565b60405180910390fd5b6000849050600060646005876102ba9190610b23565b6102c49190610b94565b9050600260009054906101000a900473ffffffffffffffffffffffffffffffffffffffff1673ffffffffffffffffffffffffffffffffffffffff166108fc839081150290604051600060405180830381858888f1935050505015801561032e573d6000803e3d6000fd5b50600460009054906101000a900473ffffffffffffffffffffffffffffffffffffffff1673ffffffffffffffffffffffffffffffffffffffff166108fc829081150290604051600060405180830381858888f19350505050158015610397573d6000803e3d6000fd5b5033600360006101000a81548173ffffffffffffffffffffffffffffffffffffffff021916908373ffffffffffffffffffffffffffffffffffffffff1602179055506001600360146101000a81548160ff0219169083151502179055506000610401600054610588565b61040a87610588565b61041387610588565b61043e600260009054906101000a900473ffffffffffffffffffffffffffffffffffffffff16610710565b61044733610710565b60405160200161045b959493929190610ed6565b6040516020818303038152906040529050600560009054906101000a900473ffffffffffffffffffffffffffffffffffffffff1673ffffffffffffffffffffffffffffffffffffffff1663eacabe1433836040518363ffffffff1660e01b81526004016104c9929190610fad565b6020604051808303816000875af11580156104e8573d6000803e3d6000fd5b505050506040513d601f19601f8201168201806040525081019061050c9190610ff2565b935083887ff194ec867700eb2be2f1690c2244731d85516ec6ccacc9ab8bfc7197d29f91ed60405160405180910390a3505050949350505050565b6000600360149054906101000a900460ff16905090565b6000600260009054906101000a900473ffffffffffffffffffffffffffffffffffffffff16905090565b6060600082036105cf576040518060400160405280600181526020017f3000000000000000000000000000000000000000000000000000000000000000815250905061070b565b600082905060005b600082146106015780806105ea9061101f565b915050600a826105fa9190610b94565b91506105d7565b60008167ffffffffffffffff81111561061d5761061c611067565b5b6040519080825280601f01601f19166020018201604052801561064f5781602001600182028036833780820191505090505b50905060008290505b600086146107035760018161066d9190611096565b90506000600a808861067f9190610b94565b6106899190610b23565b876106949190611096565b60306106a091906110d7565b905060008160f81b9050808484815181106106be576106bd61110c565b5b60200101907effffffffffffffffffffffffffffffffffffffffffffffffffffffffffffff1916908160001a905350600a886106fa9190610b94565b97505050610658565b819450505050505b919050565b60606000602867ffffffffffffffff81111561072f5761072e611067565b5b6040519080825280601f01601f1916602001820160405280156107615781602001600182028036833780820191505090505b50905060005b60148110156108c957600081601361077f9190611096565b600861078b9190610b23565b6002610797919061126e565b8573ffffffffffffffffffffffffffffffffffffffff166107b89190610b94565b60f81b9050600060108260f81c6107cf91906112b9565b60f81b905060008160f81c60106107e691906112ea565b8360f81c6107f49190611327565b60f81b9050610802826108d3565b858560026108109190610b23565b815181106108215761082061110c565b5b60200101907effffffffffffffffffffffffffffffffffffffffffffffffffffffffffffff1916908160001a905350610859816108d3565b8560018660026108699190610b23565b610873919061135c565b815181106108845761088361110c565b5b60200101907effffffffffffffffffffffffffffffffffffffffffffffffffffffffffffff1916908160001a90535050505080806108c19061101f565b915050610767565b5080915050919050565b6000600a8260f81c60ff1610156108fe5760308260f81c6108f491906110d7565b60f81b9050610914565b60578260f81c61090e91906110d7565b60f81b90505b919050565b600073ffffffffffffffffffffffffffffffffffffffff82169050919050565b600061094482610919565b9050919050565b61095481610939565b82525050565b600060208201905061096f600083018461094b565b92915050565b6000819050919050565b61098881610975565b82525050565b60006020820190506109a3600083018461097f565b92915050565b600080fd5b6109b781610975565b81146109c257600080fd5b50565b6000813590506109d4816109ae565b92915050565b600080600080608085870312156109f4576109f36109a9565b5b6000610a02878288016109c5565b9450506020610a13878288016109c5565b9350506040610a24878288016109c5565b9250506060610a35878288016109c5565b91505092959194509250565b60008115159050919050565b610a5681610a41565b82525050565b6000602082019050610a716000830184610a4d565b92915050565b600082825260208201905092915050565b7f526f6f6d20697320616c72656164792072656e74656400000000000000000000600082015250565b6000610abe601683610a77565b9150610ac982610a88565b602082019050919050565b60006020820190508181036000830152610aed81610ab1565b9050919050565b7f4e487b7100000000000000000000000000000000000000000000000000000000600052601160045260246000fd5b6000610b2e82610975565b9150610b3983610975565b9250828202610b4781610975565b91508282048414831517610b5e57610b5d610af4565b5b5092915050565b7f4e487b7100000000000000000000000000000000000000000000000000000000600052601260045260246000fd5b6000610b9f82610975565b9150610baa83610975565b925082610bba57610bb9610b65565b5b828204905092915050565b7f496e636f7272656374207061796d656e7420616d6f756e740000000000000000600082015250565b6000610bfb601883610a77565b9150610c0682610bc5565b602082019050919050565b60006020820190508181036000830152610c2a81610bee565b9050919050565b7f496e73756666696369656e742062616c616e6365000000000000000000000000600082015250565b6000610c67601483610a77565b9150610c7282610c31565b602082019050919050565b60006020820190508181036000830152610c9681610c5a565b9050919050565b600081905092915050565b7f7b22726f6f6d4964223a20220000000000000000000000000000000000000000600082015250565b6000610cde600c83610c9d565b9150610ce982610ca8565b600c82019050919050565b600081519050919050565b60005b83811015610d1d578082015181840152602081019050610d02565b60008484015250505050565b6000610d3482610cf4565b610d3e8185610c9d565b9350610d4e818560208601610cff565b80840191505092915050565b7f222c2022737461727444617465223a2022000000000000000000000000000000600082015250565b6000610d90601183610c9d565b9150610d9b82610d5a565b601182019050919050565b7f222c2022656e6444617465223a20220000000000000000000000000000000000600082015250565b6000610ddc600f83610c9d565b9150610de782610da6565b600f82019050919050565b7f222c20226c616e646c6f7264223a202200000000000000000000000000000000600082015250565b6000610e28601083610c9d565b9150610e3382610df2565b601082019050919050565b7f222c202274656e616e74223a2022000000000000000000000000000000000000600082015250565b6000610e74600e83610c9d565b9150610e7f82610e3e565b600e82019050919050565b7f227d000000000000000000000000000000000000000000000000000000000000600082015250565b6000610ec0600283610c9d565b9150610ecb82610e8a565b600282019050919050565b6000610ee182610cd1565b9150610eed8288610d29565b9150610ef882610d83565b9150610f048287610d29565b9150610f0f82610dcf565b9150610f1b8286610d29565b9150610f2682610e1b565b9150610f328285610d29565b9150610f3d82610e67565b9150610f498284610d29565b9150610f5482610eb3565b91508190509695505050505050565b6000601f19601f8301169050919050565b6000610f7f82610cf4565b610f898185610a77565b9350610f99818560208601610cff565b610fa281610f63565b840191505092915050565b6000604082019050610fc2600083018561094b565b8181036020830152610fd48184610f74565b90509392505050565b600081519050610fec816109ae565b92915050565b600060208284031215611008576110076109a9565b5b600061101684828501610fdd565b91505092915050565b600061102a82610975565b91507fffffffffffffffffffffffffffffffffffffffffffffffffffffffffffffffff820361105c5761105b610af4565b5b600182019050919050565b7f4e487b7100000000000000000000000000000000000000000000000000000000600052604160045260246000fd5b60006110a182610975565b91506110ac83610975565b92508282039050818111156110c4576110c3610af4565b5b92915050565b600060ff82169050919050565b60006110e2826110ca565b91506110ed836110ca565b9250828201905060ff81111561110657611105610af4565b5b92915050565b7f4e487b7100000000000000000000000000000000000000000000000000000000600052603260045260246000fd5b60008160011c9050919050565b6000808291508390505b60018511156111925780860481111561116e5761116d610af4565b5b600185161561117d5780820291505b808102905061118b8561113b565b9450611152565b94509492505050565b6000826111ab5760019050611267565b816111b95760009050611267565b81600181146111cf57600281146111d957611208565b6001915050611267565b60ff8411156111eb576111ea610af4565b5b8360020a91508482111561120257611201610af4565b5b50611267565b5060208310610133831016604e8410600b841016171561123d5782820a90508381111561123857611237610af4565b5b611267565b61124a8484846001611148565b9250905081840481111561126157611260610af4565b5b81810290505b9392505050565b600061127982610975565b915061128483610975565b92506112b17fffffffffffffffffffffffffffffffffffffffffffffffffffffffffffffffff848461119b565b905092915050565b60006112c4826110ca565b91506112cf836110ca565b9250826112df576112de610b65565b5b828204905092915050565b60006112f5826110ca565b9150611300836110ca565b925082820261130e816110ca565b91508082146113205761131f610af4565b5b5092915050565b6000611332826110ca565b915061133d836110ca565b9250828203905060ff81111561135657611355610af4565b5b92915050565b600061136782610975565b915061137283610975565b925082820190508082111561138a57611389610af4565b5b9291505056fea2646970667358221220ac698a017292f4cfbcff4d7050f74bc5bd82205ea87730da535b93cfd41324b964736f6c6343000814003360806040523480156200001157600080fd5b50336040518060400160405280600781526020017f526f6f6d4e4654000000000000000000000000000000000000000000000000008152506040518060400160405280600481526020017f524e465400000000000000000000000000000000000000000000000000000000815250816000908162000090919062000472565b508060019081620000a2919062000472565b505050600073ffffffffffffffffffffffffffffffffffffffff168173ffffffffffffffffffffffffffffffffffffffff16036200011a5760006040517f1e4fbdf70000000000000000000000000000000000000000000000000000000081526004016200011191906200059e565b60405180910390fd5b6200012b816200013260201b60201c565b50620005bb565b6000600760009054906101000a900473ffffffffffffffffffffffffffffffffffffffff16905081600760006101000a81548173ffffffffffffffffffffffffffffffffffffffff021916908373ffffffffffffffffffffffffffffffffffffffff1602179055508173ffffffffffffffffffffffffffffffffffffffff168173ffffffffffffffffffffffffffffffffffffffff167f8be0079c531659141344cd1fd0a4f28419497f9722a3daafe3b4186f6b6457e060405160405180910390a35050565b600081519050919050565b7f4e487b7100000000000000000000000000000000000000000000000000000000600052604160045260246000fd5b7f4e487b7100000000000000000000000000000000000000000000000000000000600052602260045260246000fd5b600060028204905060018216806200027a57607f821691505b60208210810362000290576200028f62000232565b5b50919050565b60008190508160005260206000209050919050565b60006020601f8301049050919050565b600082821b905092915050565b600060088302620002fa7fffffffffffffffffffffffffffffffffffffffffffffffffffffffffffffffff82620002bb565b620003068683620002bb565b95508019841693508086168417925050509392505050565b6000819050919050565b6000819050919050565b6000620003536200034d62000347846200031e565b62000328565b6200031e565b9050919050565b6000819050919050565b6200036f8362000332565b620003876200037e826200035a565b848454620002c8565b825550505050565b600090565b6200039e6200038f565b620003ab81848462000364565b505050565b5b81811015620003d357620003c760008262000394565b600181019050620003b1565b5050565b601f8211156200042257620003ec8162000296565b620003f784620002ab565b8101602085101562000407578190505b6200041f6200041685620002ab565b830182620003b0565b50505b505050565b600082821c905092915050565b6000620004476000198460080262000427565b1980831691505092915050565b600062000462838362000434565b9150826002028217905092915050565b6200047d82620001f8565b67ffffffffffffffff81111562000499576200049862000203565b5b620004a5825462000261565b620004b2828285620003d7565b600060209050601f831160018114620004ea5760008415620004d5578287015190505b620004e1858262000454565b86555062000551565b601f198416620004fa8662000296565b60005b828110156200052457848901518255600182019150602085019450602081019050620004fd565b8683101562000544578489015162000540601f89168262000434565b8355505b6001600288020188555050505b505050505050565b600073ffffffffffffffffffffffffffffffffffffffff82169050919050565b6000620005868262000559565b9050919050565b620005988162000579565b82525050565b6000602082019050620005b560008301846200058d565b92915050565b61262d80620005cb6000396000f3fe608060405234801561001057600080fd5b506004361061010b5760003560e01c8063715018a6116100a2578063b88d4fde11610071578063b88d4fde146102a4578063c87b56dd146102c0578063e985e9c5146102f0578063eacabe1414610320578063f2fde38b146103505761010b565b8063715018a6146102425780638da5cb5b1461024c57806395d89b411461026a578063a22cb465146102885761010b565b806323b872dd116100de57806323b872dd146101aa57806342842e0e146101c65780636352211e146101e257806370a08231146102125761010b565b806301ffc9a71461011057806306fdde0314610140578063081812fc1461015e578063095ea7b31461018e575b600080fd5b61012a60048036038101906101259190611a99565b61036c565b6040516101379190611ae1565b60405180910390f35b6101486103cd565b6040516101559190611b8c565b60405180910390f35b61017860048036038101906101739190611be4565b61045f565b6040516101859190611c52565b60405180910390f35b6101a860048036038101906101a39190611c99565b61047b565b005b6101c460048036038101906101bf9190611cd9565b610491565b005b6101e060048036038101906101db9190611cd9565b610593565b005b6101fc60048036038101906101f79190611be4565b6105b3565b6040516102099190611c52565b60405180910390f35b61022c60048036038101906102279190611d2c565b6105c5565b6040516102399190611d68565b60405180910390f35b61024a61067f565b005b610254610693565b6040516102619190611c52565b60405180910390f35b6102726106bd565b60405161027f9190611b8c565b60405180910390f35b6102a2600480360381019061029d9190611daf565b61074f565b005b6102be60048036038101906102b99190611f24565b610765565b005b6102da60048036038101906102d59190611be4565b610782565b6040516102e79190611b8c565b60405180910390f35b61030a60048036038101906103059190611fa7565b610895565b6040516103179190611ae1565b60405180910390f35b61033a60048036038101906103359190612088565b610929565b6040516103479190611d68565b60405180910390f35b61036a60048036038101906103659190611d2c565b610972565b005b6000634906490660e01b7bffffffffffffffffffffffffffffffffffffffffffffffffffffffff1916827bffffffffffffffffffffffffffffffffffffffffffffffffffffffff191614806103c657506103c5826109f8565b5b9050919050565b6060600080546103dc90612113565b80601f016020809104026020016040519081016040528092919081815260200182805461040890612113565b80156104555780601f1061042a57610100808354040283529160200191610455565b820191906000526020600020905b81548152906001019060200180831161043857829003601f168201915b5050505050905090565b600061046a82610ada565b5061047482610b62565b9050919050565b61048d8282610488610b9f565b610ba7565b5050565b600073ffffffffffffffffffffffffffffffffffffffff168273ffffffffffffffffffffffffffffffffffffffff16036105035760006040517f64a0ae920000000000000000000000000000000000000000000000000000000081526004016104fa9190611c52565b60405180910390fd5b60006105178383610512610b9f565b610bb9565b90508373ffffffffffffffffffffffffffffffffffffffff168173ffffffffffffffffffffffffffffffffffffffff161461058d578382826040517f64283d7b00000000000000000000000000000000000000000000000000000000815260040161058493929190612144565b60405180910390fd5b50505050565b6105ae83838360405180602001604052806000815250610765565b505050565b60006105be82610ada565b9050919050565b60008073ffffffffffffffffffffffffffffffffffffffff168273ffffffffffffffffffffffffffffffffffffffff16036106385760006040517f89c62b6400000000000000000000000000000000000000000000000000000000815260040161062f9190611c52565b60405180910390fd5b600360008373ffffffffffffffffffffffffffffffffffffffff1673ffffffffffffffffffffffffffffffffffffffff168152602001908152602001600020549050919050565b610687610dd3565b6106916000610e5a565b565b6000600760009054906101000a900473ffffffffffffffffffffffffffffffffffffffff16905090565b6060600180546106cc90612113565b80601f01602080910402602001604051908101604052809291908181526020018280546106f890612113565b80156107455780601f1061071a57610100808354040283529160200191610745565b820191906000526020600020905b81548152906001019060200180831161072857829003601f168201915b5050505050905090565b61076161075a610b9f565b8383610f20565b5050565b610770848484610491565b61077c8484848461108f565b50505050565b606061078d82610ada565b5060006006600084815260200190815260200160002080546107ae90612113565b80601f01602080910402602001604051908101604052809291908181526020018280546107da90612113565b80156108275780601f106107fc57610100808354040283529160200191610827565b820191906000526020600020905b81548152906001019060200180831161080a57829003601f168201915b505050505090506000610838611246565b9050600081510361084d578192505050610890565b60008251111561088257808260405160200161086a9291906121b7565b60405160208183030381529060405292505050610890565b61088b8461125d565b925050505b919050565b6000600560008473ffffffffffffffffffffffffffffffffffffffff1673ffffffffffffffffffffffffffffffffffffffff16815260200190815260200160002060008373ffffffffffffffffffffffffffffffffffffffff1673ffffffffffffffffffffffffffffffffffffffff16815260200190815260200160002060009054906101000a900460ff16905092915050565b6000610933610dd3565b600160086000828254610946919061220a565b925050819055506000600854905061095e84826112c6565b61096881846113bf565b8091505092915050565b61097a610dd3565b600073ffffffffffffffffffffffffffffffffffffffff168173ffffffffffffffffffffffffffffffffffffffff16036109ec5760006040517f1e4fbdf70000000000000000000000000000000000000000000000000000000081526004016109e39190611c52565b60405180910390fd5b6109f581610e5a565b50565b60007f80ac58cd000000000000000000000000000000000000000000000000000000007bffffffffffffffffffffffffffffffffffffffffffffffffffffffff1916827bffffffffffffffffffffffffffffffffffffffffffffffffffffffff19161480610ac357507f5b5e139f000000000000000000000000000000000000000000000000000000007bffffffffffffffffffffffffffffffffffffffffffffffffffffffff1916827bffffffffffffffffffffffffffffffffffffffffffffffffffffffff1916145b80610ad35750610ad28261141b565b5b9050919050565b600080610ae683611485565b9050600073ffffffffffffffffffffffffffffffffffffffff168173ffffffffffffffffffffffffffffffffffffffff1603610b5957826040517f7e273289000000000000000000000000000000000000000000000000000000008152600401610b509190611d68565b60405180910390fd5b80915050919050565b60006004600083815260200190815260200160002060009054906101000a900473ffffffffffffffffffffffffffffffffffffffff169050919050565b600033905090565b610bb483838360016114c2565b505050565b600080610bc584611485565b9050600073ffffffffffffffffffffffffffffffffffffffff168373ffffffffffffffffffffffffffffffffffffffff1614610c0757610c06818486611687565b5b600073ffffffffffffffffffffffffffffffffffffffff168173ffffffffffffffffffffffffffffffffffffffff1614610c9857610c496000856000806114c2565b6001600360008373ffffffffffffffffffffffffffffffffffffffff1673ffffffffffffffffffffffffffffffffffffffff168152602001908152602001600020600082825403925050819055505b600073ffffffffffffffffffffffffffffffffffffffff168573ffffffffffffffffffffffffffffffffffffffff1614610d1b576001600360008773ffffffffffffffffffffffffffffffffffffffff1673ffffffffffffffffffffffffffffffffffffffff168152602001908152602001600020600082825401925050819055505b846002600086815260200190815260200160002060006101000a81548173ffffffffffffffffffffffffffffffffffffffff021916908373ffffffffffffffffffffffffffffffffffffffff160217905550838573ffffffffffffffffffffffffffffffffffffffff168273ffffffffffffffffffffffffffffffffffffffff167fddf252ad1be2c89b69c2b068fc378daa952ba7f163c4a11628f55a4df523b3ef60405160405180910390a4809150509392505050565b610ddb610b9f565b73ffffffffffffffffffffffffffffffffffffffff16610df9610693565b73ffffffffffffffffffffffffffffffffffffffff1614610e5857610e1c610b9f565b6040517f118cdaa7000000000000000000000000000000000000000000000000000000008152600401610e4f9190611c52565b60405180910390fd5b565b6000600760009054906101000a900473ffffffffffffffffffffffffffffffffffffffff16905081600760006101000a81548173ffffffffffffffffffffffffffffffffffffffff021916908373ffffffffffffffffffffffffffffffffffffffff1602179055508173ffffffffffffffffffffffffffffffffffffffff168173ffffffffffffffffffffffffffffffffffffffff167f8be0079c531659141344cd1fd0a4f28419497f9722a3daafe3b4186f6b6457e060405160405180910390a35050565b600073ffffffffffffffffffffffffffffffffffffffff168273ffffffffffffffffffffffffffffffffffffffff1603610f9157816040517f5b08ba18000000000000000000000000000000000000000000000000000000008152600401610f889190611c52565b60405180910390fd5b80600560008573ffffffffffffffffffffffffffffffffffffffff1673ffffffffffffffffffffffffffffffffffffffff16815260200190815260200160002060008473ffffffffffffffffffffffffffffffffffffffff1673ffffffffffffffffffffffffffffffffffffffff16815260200190815260200160002060006101000a81548160ff0219169083151502179055508173ffffffffffffffffffffffffffffffffffffffff168373ffffffffffffffffffffffffffffffffffffffff167f17307eab39ab6107e8899845ad3d59bd9653f200f220920489ca2b5937696c31836040516110829190611ae1565b60405180910390a3505050565b60008373ffffffffffffffffffffffffffffffffffffffff163b1115611240578273ffffffffffffffffffffffffffffffffffffffff1663150b7a026110d3610b9f565b8685856040518563ffffffff1660e01b81526004016110f59493929190612293565b6020604051808303816000875af192505050801561113157506040513d601f19601f8201168201806040525081019061112e91906122f4565b60015b6111b5573d8060008114611161576040519150601f19603f3d011682016040523d82523d6000602084013e611166565b606091505b5060008151036111ad57836040517f64a0ae920000000000000000000000000000000000000000000000000000000081526004016111a49190611c52565b60405180910390fd5b805181602001fd5b63150b7a0260e01b7bffffffffffffffffffffffffffffffffffffffffffffffffffffffff1916817bffffffffffffffffffffffffffffffffffffffffffffffffffffffff19161461123e57836040517f64a0ae920000000000000000000000000000000000000000000000000000000081526004016112359190611c52565b60405180910390fd5b505b50505050565b606060405180602001604052806000815250905090565b606061126882610ada565b506000611273611246565b9050600081511161129357604051806020016040528060008152506112be565b8061129d8461174b565b6040516020016112ae9291906121b7565b6040516020818303038152906040525b915050919050565b600073ffffffffffffffffffffffffffffffffffffffff168273ffffffffffffffffffffffffffffffffffffffff16036113385760006040517f64a0ae9200000000000000000000000000000000000000000000000000000000815260040161132f9190611c52565b60405180910390fd5b600061134683836000610bb9565b9050600073ffffffffffffffffffffffffffffffffffffffff168173ffffffffffffffffffffffffffffffffffffffff16146113ba5760006040517f73c6ac6e0000000000000000000000000000000000000000000000000000000081526004016113b19190611c52565b60405180910390fd5b505050565b806006600084815260200190815260200160002090816113df91906124cd565b507ff8e1a15aba9398e019f0b49df1a4fde98ee17ae345cb5f6b5e2c27f5033e8ce78260405161140f9190611d68565b60405180910390a15050565b60007f01ffc9a7000000000000000000000000000000000000000000000000000000007bffffffffffffffffffffffffffffffffffffffffffffffffffffffff1916827bffffffffffffffffffffffffffffffffffffffffffffffffffffffff1916149050919050565b60006002600083815260200190815260200160002060009054906101000a900473ffffffffffffffffffffffffffffffffffffffff169050919050565b80806114fb5750600073ffffffffffffffffffffffffffffffffffffffff168273ffffffffffffffffffffffffffffffffffffffff1614155b1561162f57600061150b84610ada565b9050600073ffffffffffffffffffffffffffffffffffffffff168373ffffffffffffffffffffffffffffffffffffffff161415801561157657508273ffffffffffffffffffffffffffffffffffffffff168173ffffffffffffffffffffffffffffffffffffffff1614155b801561158957506115878184610895565b155b156115cb57826040517fa9fbf51f0000000000000000000000000000000000000000000000000000000081526004016115c29190611c52565b60405180910390fd5b811561162d57838573ffffffffffffffffffffffffffffffffffffffff168273ffffffffffffffffffffffffffffffffffffffff167f8c5be1e5ebec7d5bd14f71427d1e84f3dd0314c0f7b2291e5b200ac8c7c3b92560405160405180910390a45b505b836004600085815260200190815260200160002060006101000a81548173ffffffffffffffffffffffffffffffffffffffff021916908373ffffffffffffffffffffffffffffffffffffffff16021790555050505050565b611692838383611819565b61174657600073ffffffffffffffffffffffffffffffffffffffff168373ffffffffffffffffffffffffffffffffffffffff160361170757806040517f7e2732890000000000000000000000000000000000000000000000000000000081526004016116fe9190611d68565b60405180910390fd5b81816040517f177e802f00000000000000000000000000000000000000000000000000000000815260040161173d92919061259f565b60405180910390fd5b505050565b60606000600161175a846118da565b01905060008167ffffffffffffffff81111561177957611778611df9565b5b6040519080825280601f01601f1916602001820160405280156117ab5781602001600182028036833780820191505090505b509050600082602001820190505b60011561180e578080600190039150507f3031323334353637383961626364656600000000000000000000000000000000600a86061a8153600a8581611802576118016125c8565b5b049450600085036117b9575b819350505050919050565b60008073ffffffffffffffffffffffffffffffffffffffff168373ffffffffffffffffffffffffffffffffffffffff16141580156118d157508273ffffffffffffffffffffffffffffffffffffffff168473ffffffffffffffffffffffffffffffffffffffff16148061189257506118918484610895565b5b806118d057508273ffffffffffffffffffffffffffffffffffffffff166118b883610b62565b73ffffffffffffffffffffffffffffffffffffffff16145b5b90509392505050565b600080600090507a184f03e93ff9f4daa797ed6e38ed64bf6a1f0100000000000000008310611938577a184f03e93ff9f4daa797ed6e38ed64bf6a1f010000000000000000838161192e5761192d6125c8565b5b0492506040810190505b6d04ee2d6d415b85acef81000000008310611975576d04ee2d6d415b85acef8100000000838161196b5761196a6125c8565b5b0492506020810190505b662386f26fc1000083106119a457662386f26fc10000838161199a576119996125c8565b5b0492506010810190505b6305f5e10083106119cd576305f5e10083816119c3576119c26125c8565b5b0492506008810190505b61271083106119f25761271083816119e8576119e76125c8565b5b0492506004810190505b60648310611a155760648381611a0b57611a0a6125c8565b5b0492506002810190505b600a8310611a24576001810190505b80915050919050565b6000604051905090565b600080fd5b600080fd5b60007fffffffff0000000000000000000000000000000000000000000000000000000082169050919050565b611a7681611a41565b8114611a8157600080fd5b50565b600081359050611a9381611a6d565b92915050565b600060208284031215611aaf57611aae611a37565b5b6000611abd84828501611a84565b91505092915050565b60008115159050919050565b611adb81611ac6565b82525050565b6000602082019050611af66000830184611ad2565b92915050565b600081519050919050565b600082825260208201905092915050565b60005b83811015611b36578082015181840152602081019050611b1b565b60008484015250505050565b6000601f19601f8301169050919050565b6000611b5e82611afc565b611b688185611b07565b9350611b78818560208601611b18565b611b8181611b42565b840191505092915050565b60006020820190508181036000830152611ba68184611b53565b905092915050565b6000819050919050565b611bc181611bae565b8114611bcc57600080fd5b50565b600081359050611bde81611bb8565b92915050565b600060208284031215611bfa57611bf9611a37565b5b6000611c0884828501611bcf565b91505092915050565b600073ffffffffffffffffffffffffffffffffffffffff82169050919050565b6000611c3c82611c11565b9050919050565b611c4c81611c31565b82525050565b6000602082019050611c676000830184611c43565b92915050565b611c7681611c31565b8114611c8157600080fd5b50565b600081359050611c9381611c6d565b92915050565b60008060408385031215611cb057611caf611a37565b5b6000611cbe85828601611c84565b9250506020611ccf85828601611bcf565b9150509250929050565b600080600060608486031215611cf257611cf1611a37565b5b6000611d0086828701611c84565b9350506020611d1186828701611c84565b9250506040611d2286828701611bcf565b9150509250925092565b600060208284031215611d4257611d41611a37565b5b6000611d5084828501611c84565b91505092915050565b611d6281611bae565b82525050565b6000602082019050611d7d6000830184611d59565b92915050565b611d8c81611ac6565b8114611d9757600080fd5b50565b600081359050611da981611d83565b92915050565b60008060408385031215611dc657611dc5611a37565b5b6000611dd485828601611c84565b9250506020611de585828601611d9a565b9150509250929050565b600080fd5b600080fd5b7f4e487b7100000000000000000000000000000000000000000000000000000000600052604160045260246000fd5b611e3182611b42565b810181811067ffffffffffffffff82111715611e5057611e4f611df9565b5b80604052505050565b6000611e63611a2d565b9050611e6f8282611e28565b919050565b600067ffffffffffffffff821115611e8f57611e8e611df9565b5b611e9882611b42565b9050602081019050919050565b82818337600083830152505050565b6000611ec7611ec284611e74565b611e59565b905082815260208101848484011115611ee357611ee2611df4565b5b611eee848285611ea5565b509392505050565b600082601f830112611f0b57611f0a611def565b5b8135611f1b848260208601611eb4565b91505092915050565b60008060008060808587031215611f3e57611f3d611a37565b5b6000611f4c87828801611c84565b9450506020611f5d87828801611c84565b9350506040611f6e87828801611bcf565b925050606085013567ffffffffffffffff811115611f8f57611f8e611a3c565b5b611f9b87828801611ef6565b91505092959194509250565b60008060408385031215611fbe57611fbd611a37565b5b6000611fcc85828601611c84565b9250506020611fdd85828601611c84565b9150509250929050565b600067ffffffffffffffff82111561200257612001611df9565b5b61200b82611b42565b9050602081019050919050565b600061202b61202684611fe7565b611e59565b90508281526020810184848401111561204757612046611df4565b5b612052848285611ea5565b509392505050565b600082601f83011261206f5761206e611def565b5b813561207f848260208601612018565b91505092915050565b6000806040838503121561209f5761209e611a37565b5b60006120ad85828601611c84565b925050602083013567ffffffffffffffff8111156120ce576120cd611a3c565b5b6120da8582860161205a565b9150509250929050565b7f4e487b7100000000000000000000000000000000000000000000000000000000600052602260045260246000fd5b6000600282049050600182168061212b57607f821691505b60208210810361213e5761213d6120e4565b5b50919050565b60006060820190506121596000830186611c43565b6121666020830185611d59565b6121736040830184611c43565b949350505050565b600081905092915050565b600061219182611afc565b61219b818561217b565b93506121ab818560208601611b18565b80840191505092915050565b60006121c38285612186565b91506121cf8284612186565b91508190509392505050565b7f4e487b7100000000000000000000000000000000000000000000000000000000600052601160045260246000fd5b600061221582611bae565b915061222083611bae565b9250828201905080821115612238576122376121db565b5b92915050565b600081519050919050565b600082825260208201905092915050565b60006122658261223e565b61226f8185612249565b935061227f818560208601611b18565b61228881611b42565b840191505092915050565b60006080820190506122a86000830187611c43565b6122b56020830186611c43565b6122c26040830185611d59565b81810360608301526122d4818461225a565b905095945050505050565b6000815190506122ee81611a6d565b92915050565b60006020828403121561230a57612309611a37565b5b6000612318848285016122df565b91505092915050565b60008190508160005260206000209050919050565b60006020601f8301049050919050565b600082821b905092915050565b6000600883026123837fffffffffffffffffffffffffffffffffffffffffffffffffffffffffffffffff82612346565b61238d8683612346565b95508019841693508086168417925050509392505050565b6000819050919050565b60006123ca6123c56123c084611bae565b6123a5565b611bae565b9050919050565b6000819050919050565b6123e4836123af565b6123f86123f0826123d1565b848454612353565b825550505050565b600090565b61240d612400565b6124188184846123db565b505050565b5b8181101561243c57612431600082612405565b60018101905061241e565b5050565b601f8211156124815761245281612321565b61245b84612336565b8101602085101561246a578190505b61247e61247685612336565b83018261241d565b50505b505050565b600082821c905092915050565b60006124a460001984600802612486565b1980831691505092915050565b60006124bd8383612493565b9150826002028217905092915050565b6124d682611afc565b67ffffffffffffffff8111156124ef576124ee611df9565b5b6124f98254612113565b612504828285612440565b600060209050601f8311600181146125375760008415612525578287015190505b61252f85826124b1565b865550612597565b601f19841661254586612321565b60005b8281101561256d57848901518255600182019150602085019450602081019050612548565b8683101561258a5784890151612586601f891682612493565b8355505b6001600288020188555050505b505050505050565b60006040820190506125b46000830185611c43565b6125c16020830184611d59565b9392505050565b7f4e487b7100000000000000000000000000000000000000000000000000000000600052601260045260246000fdfea26469706673582212200d99f5d873fd41e5579e30300d6c2a36dbd32c9ecffa6196ca49897ff776d4b264736f6c63430008140033a2646970667358221220238de8255ccfcdacb07d94f8568ae27b9a6fade8afbf9ded32acd3b7c743086664736f6c63430008140033",
  "linkReferences": {},
  "deployedLinkReferences": {}
}