{
  "_format": "hh-sol-artifact-1",
  "contractName": "Router",
  "sourceName": "contracts/Router.sol",
  "abi": [
    {
      "inputs": [
        {
          "internalType": "address",
          "name": "_systemAccount",
          "type": "address"
        },
        {
          "internalType": "address",
          "name": "_nftContractAddress",
          "type": "address"
        }
      ],
      "stateMutability": "nonpayable",
      "type": "constructor"
    },
    {
      "anonymous": false,
      "inputs": [
        {
          "indexed": true,
          "internalType": "address",
          "name": "roomAddress",
          "type": "address"
        },
        {
          "indexed": false,
          "internalType": "uint256",
          "name": "roomId",
          "type": "uint256"
        },
        {
          "indexed": false,
          "internalType": "address",
          "name": "landlord",
          "type": "address"
        }
      ],
      "name": "RoomDeployed",
      "type": "event"
    },
    {
      "inputs": [
        {
          "internalType": "uint256",
          "name": "roomId",
          "type": "uint256"
        },
        {
          "internalType": "uint256",
          "name": "price",
          "type": "uint256"
        },
        {
          "internalType": "address",
          "name": "landlord",
          "type": "address"
        }
      ],
      "name": "createRoom",
      "outputs": [
        {
          "internalType": "address",
          "name": "",
          "type": "address"
        }
      ],
      "stateMutability": "nonpayable",
      "type": "function"
    },
    {
      "inputs": [],
      "name": "nftContractAddress",
      "outputs": [
        {
          "internalType": "address",
          "name": "",
          "type": "address"
        }
      ],
      "stateMutability": "view",
      "type": "function"
    },
    {
      "inputs": [
        {
          "internalType": "address",
          "name": "roomAddress",
          "type": "address"
        },
        {
          "internalType": "uint256",
          "name": "roomId",
          "type": "uint256"
        },
        {
          "internalType": "uint256",
          "name": "price",
          "type": "uint256"
        },
        {
          "internalType": "uint256",
          "name": "startDate",
          "type": "uint256"
        },
        {
          "internalType": "uint256",
          "name": "endDate",
          "type": "uint256"
        }
      ],
      "name": "rentRoom",
      "outputs": [],
      "stateMutability": "payable",
      "type": "function"
    },
    {
      "inputs": [],
      "name": "systemAccount",
      "outputs": [
        {
          "internalType": "address",
          "name": "",
          "type": "address"
        }
      ],
      "stateMutability": "view",
      "type": "function"
    }
  ],
  "bytecode": "0x608060405234801561001057600080fd5b50604051611df3380380611df38339818101604052810190610032919061011d565b816000806101000a81548173ffffffffffffffffffffffffffffffffffffffff021916908373ffffffffffffffffffffffffffffffffffffffff16021790555080600160006101000a81548173ffffffffffffffffffffffffffffffffffffffff021916908373ffffffffffffffffffffffffffffffffffffffff160217905550505061015d565b600080fd5b600073ffffffffffffffffffffffffffffffffffffffff82169050919050565b60006100ea826100bf565b9050919050565b6100fa816100df565b811461010557600080fd5b50565b600081519050610117816100f1565b92915050565b60008060408385031215610134576101336100ba565b5b600061014285828601610108565b925050602061015385828601610108565b9150509250929050565b611c878061016c6000396000f3fe60806040526004361061003f5760003560e01c80632db54eb814610044578063aae282e114610081578063b656ea1e146100ac578063e2af3980146100c8575b600080fd5b34801561005057600080fd5b5061006b60048036038101906100669190610341565b6100f3565b60405161007891906103a3565b60405180910390f35b34801561008d57600080fd5b506100966101d1565b6040516100a391906103a3565b60405180910390f35b6100c660048036038101906100c191906103be565b6101f7565b005b3480156100d457600080fd5b506100dd610276565b6040516100ea91906103a3565b60405180910390f35b60008084848460008054906101000a900473ffffffffffffffffffffffffffffffffffffffff16600160009054906101000a900473ffffffffffffffffffffffffffffffffffffffff166040516101499061029a565b610157959493929190610448565b604051809103906000f080158015610173573d6000803e3d6000fd5b5090508073ffffffffffffffffffffffffffffffffffffffff167fce6e4ddbb95ee7974d7e97355962f1939bac06f5749d4acaf94d1eb6aae2d98286856040516101be92919061049b565b60405180910390a2809150509392505050565b600160009054906101000a900473ffffffffffffffffffffffffffffffffffffffff1681565b60008590508073ffffffffffffffffffffffffffffffffffffffff1663a165c0ba34878787876040518663ffffffff1660e01b815260040161023c94939291906104c4565b6000604051808303818588803b15801561025557600080fd5b505af1158015610269573d6000803e3d6000fd5b5050505050505050505050565b60008054906101000a900473ffffffffffffffffffffffffffffffffffffffff1681565b611748806200050a83390190565b600080fd5b6000819050919050565b6102c0816102ad565b81146102cb57600080fd5b50565b6000813590506102dd816102b7565b92915050565b600073ffffffffffffffffffffffffffffffffffffffff82169050919050565b600061030e826102e3565b9050919050565b61031e81610303565b811461032957600080fd5b50565b60008135905061033b81610315565b92915050565b60008060006060848603121561035a576103596102a8565b5b6000610368868287016102ce565b9350506020610379868287016102ce565b925050604061038a8682870161032c565b9150509250925092565b61039d81610303565b82525050565b60006020820190506103b86000830184610394565b92915050565b600080600080600060a086880312156103da576103d96102a8565b5b60006103e88882890161032c565b95505060206103f9888289016102ce565b945050604061040a888289016102ce565b935050606061041b888289016102ce565b925050608061042c888289016102ce565b9150509295509295909350565b610442816102ad565b82525050565b600060a08201905061045d6000830188610439565b61046a6020830187610439565b6104776040830186610394565b6104846060830185610394565b6104916080830184610394565b9695505050505050565b60006040820190506104b06000830185610439565b6104bd6020830184610394565b9392505050565b60006080820190506104d96000830187610439565b6104e66020830186610439565b6104f36040830185610439565b6105006060830184610439565b9594505050505056fe60806040523480156200001157600080fd5b5060405162001748380380620017488339818101604052810190620000379190620001d3565b846000819055508360018190555082600260006101000a81548173ffffffffffffffffffffffffffffffffffffffff021916908373ffffffffffffffffffffffffffffffffffffffff1602179055506000600360146101000a81548160ff02191690831515021790555081600460006101000a81548173ffffffffffffffffffffffffffffffffffffffff021916908373ffffffffffffffffffffffffffffffffffffffff16021790555080600560006101000a81548173ffffffffffffffffffffffffffffffffffffffff021916908373ffffffffffffffffffffffffffffffffffffffff16021790555050505050506200025b565b600080fd5b6000819050919050565b620001488162000133565b81146200015457600080fd5b50565b60008151905062000168816200013d565b92915050565b600073ffffffffffffffffffffffffffffffffffffffff82169050919050565b60006200019b826200016e565b9050919050565b620001ad816200018e565b8114620001b957600080fd5b50565b600081519050620001cd81620001a2565b92915050565b600080600080600060a08688031215620001f257620001f16200012e565b5b6000620002028882890162000157565b9550506020620002158882890162000157565b94505060406200022888828901620001bc565b93505060606200023b88828901620001bc565b92505060806200024e88828901620001bc565b9150509295509295909350565b6114dd806200026b6000396000f3fe6080604052600436106100555760003560e01c80633e6ca6aa1461005a5780635d1ca6311461008557806398d5fdca146100b0578063a165c0ba146100db578063a6304952146100f7578063f502236d14610122575b600080fd5b34801561006657600080fd5b5061006f61014d565b60405161007c9190610999565b60405180910390f35b34801561009157600080fd5b5061009a610177565b6040516100a791906109cd565b60405180910390f35b3480156100bc57600080fd5b506100c5610180565b6040516100d291906109cd565b60405180910390f35b6100f560048036038101906100f09190610a19565b61018a565b005b34801561010357600080fd5b5061010c610586565b6040516101199190610a9b565b60405180910390f35b34801561012e57600080fd5b5061013761059d565b6040516101449190610999565b60405180910390f35b6000600360009054906101000a900473ffffffffffffffffffffffffffffffffffffffff16905090565b60008054905090565b6000600154905090565b60005484146101ce576040517f08c379a00000000000000000000000000000000000000000000000000000000081526004016101c590610b13565b60405180910390fd5b600360149054906101000a900460ff161561021e576040517f08c379a000000000000000000000000000000000000000000000000000000000815260040161021590610b7f565b60405180910390fd5b808210610260576040517f08c379a000000000000000000000000000000000000000000000000000000000815260040161025790610beb565b60405180910390fd5b606460698461026f9190610c3a565b6102799190610cab565b34146102ba576040517f08c379a00000000000000000000000000000000000000000000000000000000081526004016102b190610d28565b60405180910390fd5b343373ffffffffffffffffffffffffffffffffffffffff16311015610314576040517f08c379a000000000000000000000000000000000000000000000000000000000815260040161030b90610d94565b60405180910390fd5b60008390506000606460058661032a9190610c3a565b6103349190610cab565b9050600260009054906101000a900473ffffffffffffffffffffffffffffffffffffffff1673ffffffffffffffffffffffffffffffffffffffff166108fc839081150290604051600060405180830381858888f1935050505015801561039e573d6000803e3d6000fd5b50600460009054906101000a900473ffffffffffffffffffffffffffffffffffffffff1673ffffffffffffffffffffffffffffffffffffffff166108fc829081150290604051600060405180830381858888f19350505050158015610407573d6000803e3d6000fd5b5033600360006101000a81548173ffffffffffffffffffffffffffffffffffffffff021916908373ffffffffffffffffffffffffffffffffffffffff1602179055506001600360146101000a81548160ff02191690831515021790555060006104716000546105c7565b61047a866105c7565b610483866105c7565b6104ae600260009054906101000a900473ffffffffffffffffffffffffffffffffffffffff1661074f565b6104b73361074f565b6040516020016104cb959493929190610fed565b6040516020818303038152906040529050600560009054906101000a900473ffffffffffffffffffffffffffffffffffffffff1673ffffffffffffffffffffffffffffffffffffffff1663eacabe1433836040518363ffffffff1660e01b81526004016105399291906110c4565b6020604051808303816000875af1158015610558573d6000803e3d6000fd5b505050506040513d601f19601f8201168201806040525081019061057c9190611109565b5050505050505050565b6000600360149054906101000a900460ff16905090565b6000600260009054906101000a900473ffffffffffffffffffffffffffffffffffffffff16905090565b60606000820361060e576040518060400160405280600181526020017f3000000000000000000000000000000000000000000000000000000000000000815250905061074a565b600082905060005b6000821461064057808061062990611136565b915050600a826106399190610cab565b9150610616565b60008167ffffffffffffffff81111561065c5761065b61117e565b5b6040519080825280601f01601f19166020018201604052801561068e5781602001600182028036833780820191505090505b50905060008290505b60008614610742576001816106ac91906111ad565b90506000600a80886106be9190610cab565b6106c89190610c3a565b876106d391906111ad565b60306106df91906111ee565b905060008160f81b9050808484815181106106fd576106fc611223565b5b60200101907effffffffffffffffffffffffffffffffffffffffffffffffffffffffffffff1916908160001a905350600a886107399190610cab565b97505050610697565b819450505050505b919050565b60606000602867ffffffffffffffff81111561076e5761076d61117e565b5b6040519080825280601f01601f1916602001820160405280156107a05781602001600182028036833780820191505090505b50905060005b60148110156109085760008160136107be91906111ad565b60086107ca9190610c3a565b60026107d69190611385565b8573ffffffffffffffffffffffffffffffffffffffff166107f79190610cab565b60f81b9050600060108260f81c61080e91906113d0565b60f81b905060008160f81c60106108259190611401565b8360f81c610833919061143e565b60f81b905061084182610912565b8585600261084f9190610c3a565b815181106108605761085f611223565b5b60200101907effffffffffffffffffffffffffffffffffffffffffffffffffffffffffffff1916908160001a90535061089881610912565b8560018660026108a89190610c3a565b6108b29190611473565b815181106108c3576108c2611223565b5b60200101907effffffffffffffffffffffffffffffffffffffffffffffffffffffffffffff1916908160001a905350505050808061090090611136565b9150506107a6565b5080915050919050565b6000600a8260f81c60ff16101561093d5760308260f81c61093391906111ee565b60f81b9050610953565b60578260f81c61094d91906111ee565b60f81b90505b919050565b600073ffffffffffffffffffffffffffffffffffffffff82169050919050565b600061098382610958565b9050919050565b61099381610978565b82525050565b60006020820190506109ae600083018461098a565b92915050565b6000819050919050565b6109c7816109b4565b82525050565b60006020820190506109e260008301846109be565b92915050565b600080fd5b6109f6816109b4565b8114610a0157600080fd5b50565b600081359050610a13816109ed565b92915050565b60008060008060808587031215610a3357610a326109e8565b5b6000610a4187828801610a04565b9450506020610a5287828801610a04565b9350506040610a6387828801610a04565b9250506060610a7487828801610a04565b91505092959194509250565b60008115159050919050565b610a9581610a80565b82525050565b6000602082019050610ab06000830184610a8c565b92915050565b600082825260208201905092915050565b7f496e76616c696420726f6f6d2049440000000000000000000000000000000000600082015250565b6000610afd600f83610ab6565b9150610b0882610ac7565b602082019050919050565b60006020820190508181036000830152610b2c81610af0565b9050919050565b7f526f6f6d20697320616c72656164792072656e74656400000000000000000000600082015250565b6000610b69601683610ab6565b9150610b7482610b33565b602082019050919050565b60006020820190508181036000830152610b9881610b5c565b9050919050565b7f496e76616c69642072656e74616c20706572696f640000000000000000000000600082015250565b6000610bd5601583610ab6565b9150610be082610b9f565b602082019050919050565b60006020820190508181036000830152610c0481610bc8565b9050919050565b7f4e487b7100000000000000000000000000000000000000000000000000000000600052601160045260246000fd5b6000610c45826109b4565b9150610c50836109b4565b9250828202610c5e816109b4565b91508282048414831517610c7557610c74610c0b565b5b5092915050565b7f4e487b7100000000000000000000000000000000000000000000000000000000600052601260045260246000fd5b6000610cb6826109b4565b9150610cc1836109b4565b925082610cd157610cd0610c7c565b5b828204905092915050565b7f496e636f7272656374207061796d656e7420616d6f756e740000000000000000600082015250565b6000610d12601883610ab6565b9150610d1d82610cdc565b602082019050919050565b60006020820190508181036000830152610d4181610d05565b9050919050565b7f496e73756666696369656e742062616c616e6365000000000000000000000000600082015250565b6000610d7e601483610ab6565b9150610d8982610d48565b602082019050919050565b60006020820190508181036000830152610dad81610d71565b9050919050565b600081905092915050565b7f7b22726f6f6d4964223a20220000000000000000000000000000000000000000600082015250565b6000610df5600c83610db4565b9150610e0082610dbf565b600c82019050919050565b600081519050919050565b60005b83811015610e34578082015181840152602081019050610e19565b60008484015250505050565b6000610e4b82610e0b565b610e558185610db4565b9350610e65818560208601610e16565b80840191505092915050565b7f222c2022737461727444617465223a2022000000000000000000000000000000600082015250565b6000610ea7601183610db4565b9150610eb282610e71565b601182019050919050565b7f222c2022656e6444617465223a20220000000000000000000000000000000000600082015250565b6000610ef3600f83610db4565b9150610efe82610ebd565b600f82019050919050565b7f222c20226c616e646c6f7264223a202200000000000000000000000000000000600082015250565b6000610f3f601083610db4565b9150610f4a82610f09565b601082019050919050565b7f222c202274656e616e74223a2022000000000000000000000000000000000000600082015250565b6000610f8b600e83610db4565b9150610f9682610f55565b600e82019050919050565b7f227d000000000000000000000000000000000000000000000000000000000000600082015250565b6000610fd7600283610db4565b9150610fe282610fa1565b600282019050919050565b6000610ff882610de8565b91506110048288610e40565b915061100f82610e9a565b915061101b8287610e40565b915061102682610ee6565b91506110328286610e40565b915061103d82610f32565b91506110498285610e40565b915061105482610f7e565b91506110608284610e40565b915061106b82610fca565b91508190509695505050505050565b6000601f19601f8301169050919050565b600061109682610e0b565b6110a08185610ab6565b93506110b0818560208601610e16565b6110b98161107a565b840191505092915050565b60006040820190506110d9600083018561098a565b81810360208301526110eb818461108b565b90509392505050565b600081519050611103816109ed565b92915050565b60006020828403121561111f5761111e6109e8565b5b600061112d848285016110f4565b91505092915050565b6000611141826109b4565b91507fffffffffffffffffffffffffffffffffffffffffffffffffffffffffffffffff820361117357611172610c0b565b5b600182019050919050565b7f4e487b7100000000000000000000000000000000000000000000000000000000600052604160045260246000fd5b60006111b8826109b4565b91506111c3836109b4565b92508282039050818111156111db576111da610c0b565b5b92915050565b600060ff82169050919050565b60006111f9826111e1565b9150611204836111e1565b9250828201905060ff81111561121d5761121c610c0b565b5b92915050565b7f4e487b7100000000000000000000000000000000000000000000000000000000600052603260045260246000fd5b60008160011c9050919050565b6000808291508390505b60018511156112a95780860481111561128557611284610c0b565b5b60018516156112945780820291505b80810290506112a285611252565b9450611269565b94509492505050565b6000826112c2576001905061137e565b816112d0576000905061137e565b81600181146112e657600281146112f05761131f565b600191505061137e565b60ff84111561130257611301610c0b565b5b8360020a91508482111561131957611318610c0b565b5b5061137e565b5060208310610133831016604e8410600b84101617156113545782820a90508381111561134f5761134e610c0b565b5b61137e565b611361848484600161125f565b9250905081840481111561137857611377610c0b565b5b81810290505b9392505050565b6000611390826109b4565b915061139b836109b4565b92506113c87fffffffffffffffffffffffffffffffffffffffffffffffffffffffffffffffff84846112b2565b905092915050565b60006113db826111e1565b91506113e6836111e1565b9250826113f6576113f5610c7c565b5b828204905092915050565b600061140c826111e1565b9150611417836111e1565b9250828202611425816111e1565b915080821461143757611436610c0b565b5b5092915050565b6000611449826111e1565b9150611454836111e1565b9250828203905060ff81111561146d5761146c610c0b565b5b92915050565b600061147e826109b4565b9150611489836109b4565b92508282019050808211156114a1576114a0610c0b565b5b9291505056fea2646970667358221220be1ba828bb436894530b02c48bbf36f1959b9aaa9d4cfc4df06787a818326a7264736f6c63430008140033a2646970667358221220a2db3a73d074d59ca50c39aeac11af97b9df1af993e285911c425f0771c2db4e64736f6c63430008140033",
  "linkReferences": {},
  "deployedLinkReferences": {}
}